:0400000007EF00F016
:0A0008000182D3ED08F03EEF09F08D
:1008000000745F726573756C742E7478743D224247
:100810005553542120323120474543544922007416
:100820005F726573756C742E7478743D224B4159F8
:1008300042455454494E212200745F726573756CB1
:10084000742E7478743D2247414D45204F564552D1
:10085000212200745F726573756C742E7478743D18
:10086000224B415A414E44494E212200745F646537
:10087000616C65722E7478743D2225642200745F69
:10088000706C617965722E7478743D222564220043
:10089000745F6465616C65722E7478743D223022D9
:1008A00000745F706C617965722E7478743D2230CB
:1008B0002200745F726573756C742E7478743D22B7
:1008C00022006E5F6C697665732E76616C3D2564DF
:0D08D000007025642E7069633D25640000F2
:1008DE00F00E936EF19E94929494F80E9516E4ECAD
:1008EE0009F0010ECD6E9D80F28EF28C010E066E19
:1008FE00F40E056ED6EC09F00D0E0001616FAF0E11
:10090E00606FB60EE82EFED7602FFCD7612FFAD798
:10091E00000088EC09F00001DC51D8A499EF04F036
:10092E009BEF04F0B4EF04F0390E056E0550D8A419
:10093E00080E066E00EC08F073EC06F0430AD8A41D
:10094E00ABEF04F0ADEF04F0A3EF04F0030E0001E3
:10095E00DC6F070E8C6E88EC09F073EC06F000016C
:10096E00A76F370EA719D8A4BFEF04F0C1EF04F09C
:10097E0022EF05F09CEC08F011C017F012C018F031
:10098E001A6A0D0E196E54EC07F017280001A86FA5
:10099E000B0EA861D5EF04F0D7EF04F0DCEF04F0F6
:1009AE00A8C0A3F0A46BDFEF04F0A46B0A0EA36F34
:1009BE00A3C0A2F0A251CB27620E306E7E0E316E16
:1009CE00CBC032F0336ABEEC09F0620E056E066AD9
:1009DE0000EC08F0150E0001CB65F8EF04F0FAEF0D
:1009EE0004F013EF05F0010E056E0550D8A4080EA5
:1009FE00066E00EC08F050EC08F0330E0001616F4B
:100A0E00BB0E606FDF0EE82EFED7602FFCD7612F76
:100A1E00FAD700D088EC09F0080E0001616F9D0E28
:100A2E00606F050EE82EFED7602FFCD7612FFAD728
:100A3E0000D092EF04F0380EA719D8A429EF05F0D4
:100A4E002BEF05F092EF04F04DEF05F09CEC08F063
:100A5E0011C017F012C018F01A6A0D0E196E54EC70
:100A6E0007F017280001A96F0B0EA96141EF05F0E1
:100A7E0043EF05F048EF05F0A9C0A5F0A66B4BEFCC
:100A8E0005F0A66B0A0EA56FA551CA27100ECA65F2
:100A9E0053EF05F055EF05F02DEF05F0820E306E99
:100AAE006C0E316ECAC032F0336ABEEC09F0820EA3
:100ABE00056E066A00EC08F0160E0001CA616AEFB8
:100ACE0005F06CEF05F075EF05F0CB51CA5DD8B0AF
:100ADE0073EF05F075EF05F07FEF05F0530E056E21
:100AEE000550D8A4080E066E00EC08F089EF05F04C
:100AFE001F0E056E0550D8A4080E066E00EC08F009
:100B0E0050EC08F04D0E0001616F190E606F4F0E24
:100B1E00E82EFED7602FFCD7612FFAD700D090EFCA
:100B2E0004F007EF00F02250D96EDA6ADFCFF6FF3D
:100B3E00080EF76E0800F550250AD8A4A9EF05F0A7
:100B4E00ABEF05F061EF06F02250D96EDA6ADF2ABC
:100B5E00566A000E556E55C05BF0576858682250A5
:100B6E00D96EDA6ADF50266E26C0F6FF080EF76ED3
:100B7E000800F550640AD8B4C7EF05F0C9EF05F0C8
:100B8E00D7EF05F026C0F6FF080EF76E0800F550F9
:100B9E00690AD8A4D5EF05F0D7EF05F05BEF06F0A4
:100BAE002350D96EDA6A020EDF26DF5CD96EDA6A5E
:100BBE00DECF27F0DECF28F02250D96EDA6A262853
:100BCE00DF6E200E2B6E28BEEFEF05F0F2EF05F074
:100BDE00010EF3EF05F0000E256E2B062B50AA0F1B
:100BEE00D96EDA6A27C017F028C018F01A6A0A0EF2
:100BFE00196E54EC07F017C01DF018C01EF0A4ECCF
:100C0E0009F01D50300FDF6E27C005F028C006F02A
:100C1E00086A0A0E076EF4EC06F005C027F006C04F
:100C2E0028F027502810D8B41FEF06F021EF06F059
:100C3E0029EF06F02B50D8A427EF06F029EF06F087
:100C4E00F4EF05F02B50D8B42FEF06F031EF06F08D
:100C5E0050EF06F02550D8B437EF06F039EF06F016
:100C6E0050EF06F02B062B50AA0FD96EDA6A2D0E16
:100C7E00DF6E50EF06F02B50AA0FD96EDA6ADF50F6
:100C8E00246E2450056E066A21C007F0ABEC07F007
:100C9E002B2A200E2B18D8A457EF06F059EF06F08A
:100CAE0042EF06F072EF06F02250D96EDA6ADF2AB2
:100CBE0072EF06F02250D96EDA6ADFCFF6FF080E19
:100CCE00F76E0800F550056E066A21C007F0ABEC12
:100CDE0007F05BEF06F0120020EECCF010EE07F0FE
:100CEE000F0EDBCFE3FFE806FCE2186A000E176E6C
:100CFE0018BE8BEF06F0185009E1040E175CD8A051
:100D0E008BEF06F08DEF06F08FEF06F0F2EF06F0A8
:100D1E0017C005F0010E066E052A98EF06F0D89062
:100D2E000636052E96EF06F00650FF0A8A6E100E56
:100D3E00E82EFED700D081B8A7EF06F0A9EF06F097
:100D4E00B2EF06F01750040DF350070FD96EDA6AA2
:100D5E00DF50F3EF06F081BAB7EF06F0B9EF06F009
:100D6E00C6EF06F01750040DF3CF05F0010E052661
:100D7E000550070FD96EDA6ADF50F3EF06F081BC2B
:100D8E00CBEF06F0CDEF06F0DAEF06F01750040DBC
:100D9E00F3CF05F0020E05260550070FD96EDA6A5D
:100DAE00DF50F3EF06F081BEDFEF06F0E1EF06F065
:100DBE00EEEF06F01750040DF3CF05F0030E0526E7
:100DCE000550070FD96EDA6ADF50F3EF06F0174AB7
:100DDE00182A7FEF06F0000E12000A6A08BEFCEF1A
:100DEE0006F0FAEF06F002EF07F0076C081ED8B017
:100DFE00082A010E0A6E06BE09EF07F007EF07F08C
:100E0E000FEF07F0056C061ED8B0062A010E0A1A5F
:100E1E000C6A000E0B6E07500810D8B419EF07F0CD
:100E2E001BEF07F043EF07F0010E096E23EF07F0FB
:100E3E00D89007360836092A08AE28EF07F02AEFB1
:100E4E0007F01FEF07F0D8900B360C360750055CF5
:100E5E0008500658D8A036EF07F038EF07F03DEFF0
:100E6E0007F00750055E0850065A0B80D8900832DE
:100E7E000732092E2AEF07F00A50D8B449EF07F0CF
:100E8E004BEF07F04FEF07F00B6C0C1ED8B00C2A8F
:100E9E000BC005F00CC006F012001C6A18BE5CEF09
:100EAE0007F05AEF07F062EF07F0176C181ED8B074
:100EBE00182A010E1C6E1ABE69EF07F067EF07F0D5
:100ECE006DEF07F0196C1A1ED8B01A2A19501A10A5
:100EDE00D8B474EF07F076EF07F09AEF07F0010E33
:100EEE001B6E7EEF07F0D89019361A361B2A1AAEF3
:100EFE0083EF07F085EF07F07AEF07F01950175CD4
:100F0E001A501858D8A08EEF07F090EF07F094EF14
:100F1E0007F01950175E1A50185AD8901A32193213
:100F2E001B2E85EF07F01C50D8B4A0EF07F0A2EFF0
:100F3E0007F0A6EF07F0176C181ED8B0182A17C0C6
:100F4E0017F018C018F012000750D8B4B1EF07F020
:100F5E00B3EF07F0BBEF07F00750D8A4B9EF07F0D7
:100F6E00BBEF07F0C0EF07F00550F6EC09F0FFEF0E
:100F7E0007F00750D96EDA6A090ED926DE50DE1058
:100F8E00D8B4CCEF07F0CEEF07F0E7EF07F007503D
:100F9E00D96EDA6A090ED9260750E16EE26A020EA0
:100FAE00E126DE50E65CE650800A0C6EDE50800ACA
:100FBE000C58D8B0E5EF07F0E7EF07F0FFEF07F0BA
:100FCE000750D96EDA6A020ED926DF50086E075026
:100FDE00D96EDA6ADF500824D96EDA6A05C0DFFFEF
:100FEE000750D96EDA6A020ED926DE2A000EDD22ED
:100FFE0012001CEF08F09EA807EF08F009EF08F0AA
:10100E0002EF08F005C0F6FF06C0F7FFF86A070EFC
:10101E00F76403D00800F55005D0F6CFE1FFF7CF07
:10102E00E2FFE750AD6E054A062A05C0F6FF06C080
:10103E00F7FFF86A070EF76403D00800F55005D0E5
:10104E00F6CFE1FFF7CFE2FFE7500009D8A432EF69
:10105E0008F034EF08F002EF08F0086A000E076E91
:10106E009EA83CEF08F03EEF08F037EF08F0AD68B1
:10107E00074A082A08BE4DEF08F0085009E1030E92
:10108E00075CD8A04DEF08F04FEF08F037EF08F0EF
:10109E0012000001DC078CCF42F0F80E4216DCC0C5
:1010AE0043F0010E446E432A5FEF08F0D8904436A9
:1010BE00432E5DEF08F0440442108C6E8B820D0EB1
:1010CE00436EAF0E426EB60EE82EFED7422EFCD702
:1010DE00432EFAD700D08B929CEC08F011C017F07B
:1010EE0012C018F01A6A140E196E54EC07F017504D
:1010FE00050F5C6E450E306EC20E316EDCC032F0E6
:10110E00336ABEEC09F0450E056E066A00EC08F077
:10111E001A0E436E5E0E426E6E0EE82EFED7422EF5
:10112E00FCD7432EFAD700D01200DDC005F0DEC08A
:10113E0006F0DFC007F0E0C008F02D0E096E7F0E3E
:10114E000A6E950E0B6E4C0E0C6E09EC09F0010E2C
:10115E0005240001DD6F000E0620DE6F000E072055
:10116E00DF6F000E0820E06FDDC013F0DEC014F05C
:10117E00DFC015F0E0C016F0120ECBEF08F0D890DD
:10118E001632153214321332E82EC6EF08F013C0A1
:10119E0011F014C012F0120006009EA0D9EF08F054
:1011AE00DBEF08F007EF09F05C50026E036A0250A5
:1011BE00595C03505A58D8A0E7EF08F0EBEF08F04F
:1011CE00046A042AECEF08F0046A044604468B50C5
:1011DE000418FB0B04188B6E594A5A2A5A5009E10F
:1011EE00C80E595CD8A0FEEF08F000EF09F003EF2F
:1011FE0009F05A6A000E596ECF68380ECE6E9E9068
:10120E0001921100000E0D6E000E0E6E000E0F6E8E
:10121E00000E106E05A016EF09F018EF09F020EF82
:10122E0009F009500D260A500E220B500F220C50B9
:10123E001022D89009360A360B360C36D890083262
:10124E000732063205320550061007100810D8A4D2
:10125E0033EF09F035EF09F011EF09F00DC005F08D
:10126E000EC006F00FC007F010C008F01200DA0E24
:10127E00F66E130EF76E000EF86E00EECCF010EE5A
:10128E0011F00900F5CFEEFFE550E150FAE1EE0E58
:10129E00F66E130EF76E000EF86E0900F5CF5CF0C9
:1012AE0000EEAAF0220EEE6AE806FDE100EE55F021
:1012BE00070EEE6AE806FDE101900192000EF86E4F
:1012CE0000016FEF04F02DC02FF076EF09F02CC067
:1012DE0021F02F0E226E2EC023F09AEC05F02FC0B7
:1012EE00F6FF080EF76E0800F5500009D8A482EF3D
:1012FE0009F084EF09F06EEF09F02D6A000E2C6EE6
:10130E0012000001CB6BCA6BA10E056E0550D8A45E
:10131E00080E066E00EC08F0900E056E0550D8A46F
:10132E00080E066E00EC08F0B20E056E0550D8A43D
:10133E00080E066E00EC08F012001EBEA9EF09F0B2
:10134E00ABEF09F0B1EF09F01DC01DF01EC01EF08D
:10135E00BDEF09F01DC01FF01EC020F01F1E201E85
:10136E001F4A202A1FC01DF020C01EF01200320E90
:10137E00366E30C037F03A6A000E396E416A000E92
:10138E00406E370E2C6E31C02DF0360E2E6E6AEC7E
:10139E0009F030503924D96EDA6ADF6A1200FF0E76
:1013AE000524076EFF0E0620086E07C0DDF008C08C
:1013BE00DEF00001DF6BE06B1200949C948E810EC8
:1013CE00AF6E240EAC6E900EAB6E12003738392F06
:0D13DE003435362A3132332D43303D2B0398
:0313EC0012000FDD
:020000040030CA
:08000000000C1F1EFF8181FFAF
:00000001FF
