:0400000007EF00F016
:0A0008000182ECED07F057EF08F05D
:10080000004255535421203231204745435449007A
:10081000373A48495420383A5354414E44004B41EA
:100820005341204B415A414E44490047414D4520D8
:100830004F56455221004B415A414E44494E2100EA
:10084000534B4F523A0025640000F00E936EF19E18
:1008500094929494F80E9516010ECD6E9D80F28EB2
:10086000F28C53EC09F0010E066EF40E056E6BEC83
:1008700009F05650D8A43FEF04F041EF04F059EFCF
:1008800004F0010EDCEC08F02B0E076E0750D8A424
:10089000080E086E86EC08F0ECEC05F0430AD8A4CC
:1008A00054EF04F056EF04F04CEF04F0030E566ED4
:1008B000506A010EDCEC08F0400E076E0750D8A419
:1008C000080E086E86EC08F0420E306E460E316E51
:1008D00050C032F0336A3BEC09F0420E076E086AF2
:1008E00086EC08F0C00EDCEC08F0100E076E075026
:1008F000D8A4080E086E86EC08F0ECEC05F0476E04
:100900004750D8B486EF04F088EF04F07DEF04F090
:10091000080E416E9D0E406E060EE82EFED7402E4C
:10092000FCD7412EFAD7370E4718D8A49AEF04F017
:100930009CEF04F0C1EF04F0B6EC07F011C017F023
:1009400012C018F01A6A0A0E196ECDEC06F01728BC
:100950005026150E5064AFEF04F0B1EF04F039EFFC
:1009600004F0010EDCEC08F0010E076E0750D8A46D
:10097000080E086E86EC08F079EC07F0506A39EF43
:1009800004F0380E4718D8A4C8EF04F0CAEF04F0FA
:1009900039EF04F0B6EC07F011C017F012C018F0F0
:1009A0001A6A070E196ECDEC06F017500F0F4F6E36
:1009B000160E4F60DEEF04F0E0EF04F0E9EF04F014
:1009C00050504F5CD8B0E7EF04F0E9EF04F0F6EFD9
:1009D00004F0010EDCEC08F0360E076E0750D8A4C8
:1009E000080E086E86EC08F003EF05F0010EDCEC53
:1009F00008F01E0E076E0750D8A4080E086E86EC8D
:100A000008F079EC07F0506A330E416EBB0E406E71
:100A1000E00EE82EFED7402EFCD7412EFAD739EF54
:100A200004F007EF00F02250D96EDA6ADFCFF6FF4C
:100A3000080EF76E0800F550250AD8A422EF05F03D
:100A400024EF05F0DAEF05F02250D96EDA6ADF2ADA
:100A5000496A000E486E48C04EF04A684B68225002
:100A6000D96EDA6ADF50266E26C0F6FF080EF76EE2
:100A70000800F550640AD8B440EF05F042EF05F0E5
:100A800050EF05F026C0F6FF080EF76E0800F5508F
:100A9000690AD8A44EEF05F050EF05F0D4EF05F049
:100AA0002350D96EDA6A020EDF26DF5CD96EDA6A6D
:100AB000DECF27F0DECF28F02250D96EDA6A262862
:100AC000DF6E200E2B6E28BE68EF05F06BEF05F091
:100AD000010E6CEF05F0000E256E2B062B50600FFB
:100AE000D96EDA6A27C017F028C018F01A6A0A0E01
:100AF000196ECDEC06F017C01DF018C01EF021ECE9
:100B000009F01D50300FDF6E27C005F028C006F039
:100B1000086A0A0E076E6DEC06F005C027F006C0E5
:100B200028F027502810D8B498EF05F09AEF05F078
:100B3000A2EF05F02B50D8A4A0EF05F0A2EF05F02E
:100B40006DEF05F02B50D8B4A8EF05F0AAEF05F033
:100B5000C9EF05F02550D8B4B0EF05F0B2EF05F0BD
:100B6000C9EF05F02B062B50600FD96EDA6A2D0EF7
:100B7000DF6EC9EF05F02B50600FD96EDA6ADF50D7
:100B8000246E2450056E066A21C007F024EC07F09D
:100B90002B2A200E2B18D8A4D0EF05F0D2EF05F0A9
:100BA000BBEF05F0EBEF05F02250D96EDA6ADF2AD1
:100BB000EBEF05F02250D96EDA6ADFCFF6FF080EB0
:100BC000F76E0800F550056E066A21C007F024ECA8
:100BD00007F0D4EF05F0120020EE80F010EE07F0E1
:100BE0000F0EDBCFE3FFE806FCE2186A000E176E7B
:100BF00018BE04EF06F0185009E1040E175CD8A0E7
:100C000004EF06F006EF06F008EF06F06BEF06F0D3
:100C100017C005F0010E066E052A11EF06F0D890F8
:100C20000636052E0FEF06F00650FF0A8A6E100EEC
:100C3000E82EFED700D081B820EF06F022EF06F0B4
:100C40002BEF06F01750040DF350070FD96EDA6A38
:100C5000DF506CEF06F081BA30EF06F032EF06F0AD
:100C60003FEF06F01750040DF3CF05F0010E0526F7
:100C70000550070FD96EDA6ADF506CEF06F081BCC1
:100C800044EF06F046EF06F053EF06F01750040D60
:100C9000F3CF05F0020E05260550070FD96EDA6A6C
:100CA000DF506CEF06F081BE58EF06F05AEF06F009
:100CB00067EF06F01750040DF3CF05F0030E05267D
:100CC0000550070FD96EDA6ADF506CEF06F0174A4D
:100CD000182AF8EF05F0000E12000A6A08BE75EF38
:100CE00006F073EF06F07BEF06F0076C081ED8B035
:100CF000082A010E0A6E06BE82EF06F080EF06F0AB
:100D000088EF06F0056C061ED8B0062A010E0A1AF6
:100D10000C6A000E0B6E07500810D8B492EF06F064
:100D200094EF06F0BCEF06F0010E096E9CEF06F0A2
:100D3000D89007360836092A08AEA1EF06F0A3EFCF
:100D400006F098EF06F0D8900B360C360750055C8D
:100D500008500658D8A0AFEF06F0B1EF06F0B6EF96
:100D600006F00750055E0850065A0B80D8900832EE
:100D70000732092EA3EF06F00A50D8B4C2EF06F0EE
:100D8000C4EF06F0C8EF06F00B6C0C1ED8B00C2AAE
:100D90000BC005F00CC006F012001C6A18BED5EF9F
:100DA00006F0D3EF06F0DBEF06F0176C181ED8B094
:100DB000182A010E1C6E1ABEE2EF06F0E0EF06F0F4
:100DC000E6EF06F0196C1A1ED8B01A2A19501A103C
:100DD000D8B4EDEF06F0EFEF06F013EF07F0010ED9
:100DE0001B6EF7EF06F0D89019361A361B2A1AAE8A
:100DF000FCEF06F0FEEF06F0F3EF06F01950175C7B
:100E00001A501858D8A007EF07F009EF07F00DEFB8
:100E100007F01950175E1A50185AD8901A32193222
:100E20001B2EFEEF06F01C50D8B419EF07F01BEF95
:100E300007F01FEF07F0176C181ED8B0182A17C05C
:100E400017F018C018F012000750D8B42AEF07F0B6
:100E50002CEF07F034EF07F00750D8A432EF07F07B
:100E600034EF07F039EF07F0055081EC09F078EF27
:100E700007F00750D96EDA6A090ED926DE50DE1067
:100E8000D8B445EF07F047EF07F060EF07F00750E1
:100E9000D96EDA6A090ED9260750E16EE26A020EAF
:100EA000E126DE50E65CE650800A0C6EDE50800AD9
:100EB0000C58D8B05EEF07F060EF07F078EF07F05E
:100EC0000750D96EDA6A020ED926DF50086E075035
:100ED000D96EDA6ADF500824D96EDA6A05C0DFFFFE
:100EE0000750D96EDA6A020ED926DE2A000EDD22FC
:100EF000120056068CCF1DF0F80E1D1656C01EF0BF
:100F0000010E1F6E1E2A87EF07F0D8901F361E2E87
:100F100085EF07F01F041D108C6E8B820D0E1E6E68
:100F2000AF0E1D6EB60EE82EFED71D2EFCD71E2E60
:100F3000FAD700D08B92B6EC07F011C017F012C0B0
:100F400018F01A6A140E196ECDEC06F01750050F42
:100F5000556E1A0E1E6E5E0E1D6E6E0EE82EFED7BC
:100F60001D2EFCD71E2EFAD700D0120051C005F05E
:100F700052C006F053C007F054C008F02D0E096EA1
:100F80007F0E0A6E950E0B6E4C0E0C6E22EC08F066
:100F9000010E0524516E000E0620526E000E072031
:100FA000536E000E0820546E51C013F052C014F05E
:100FB00053C015F054C016F0120EE4EF07F0D890AD
:100FC0001632153214321332E82EDFEF07F013C059
:100FD00011F014C012F0120006009EA0F2EF07F00C
:100FE000F4EF07F020EF08F05550026E036A02504C
:100FF0004C5C03504D58D8A000EF08F004EF08F007
:10100000046A042A05EF08F0046A044604468B507B
:101010000418FB0B04188B6E4C4A4D2A4D5009E105
:10102000C80E4C5CD8A017EF08F019EF08F01CEFC1
:1010300008F04D6A000E4C6ECF68380ECE6E9E9052
:1010400001921100000E0D6E000E0E6E000E0F6E5E
:10105000000E106E05A02FEF08F031EF08F039EF09
:1010600008F009500D260A500E220B500F220C508A
:101070001022D89009360A360B360C36D890083232
:101080000732063205320550061007100810D8A4A2
:101090004CEF08F04EEF08F02AEF08F00DC005F015
:1010A0000EC006F00FC007F010C008F01200F00EDE
:1010B000F66E120EF76E000EF86E00EE80F010EE77
:1010C00010F00900F5CFEEFFE550E150FAE1000E17
:1010D000F66E130EF76E000EF86E0900F5CF55F0A0
:1010E0000900F5CF56F000EE60F0200EEE6AE8063B
:1010F000FDE100EE48F00D0EEE6AE806FDE101901C
:101100000192000EF86E000125EF04F09CEF08F04C
:1011100007C0F6FF08C0F7FFF86A070EF76403D0B0
:101120000800F55005D0F6CFE1FFF7CFE2FFE7501A
:10113000B5EC08F0074A082A07C0F6FF08C0F7FF19
:10114000F86A070EF76403D00800F55005D0F6CF13
:10115000E1FFF7CFE2FFE7500009D8A4B2EF08F0B3
:10116000B4EF08F088EF08F01200066E8D8006C01C
:1011700005F0F00E05168C500F0B05108C6E8D824D
:10118000420EE82EFED700D08D9206C005F0053A3B
:10119000F00E05168C500F0B05108C6E8D82420ED2
:1011A000E82EFED700D08D920D0E056EFC0EE82EB7
:1011B000FED7052EFCD71200066E8D9006C005F0F6
:1011C000F00E05168C500F0B05108C6E8D82420EA2
:1011D000E82EFED700D08D9206C005F0053AF00E3D
:1011E00005168C500F0B05108C6E8D82420EE82E6A
:1011F000FED700D08D920D0E056EFC0EE82EFED7A8
:10120000052EFCD712002DC02FF00FEF09F02CC0D7
:1012100021F02F0E226E2EC023F013EC05F02FC00C
:10122000F6FF080EF76E0800F5500009D8A41BEF72
:1012300009F01DEF09F007EF09F02D6A000E2C6E82
:1012400012001EBE26EF09F028EF09F02EEF09F07C
:101250001DC01DF01EC01EF03AEF09F01DC01FF0AA
:101260001EC020F01F1E201E1F4A202A1FC01DF076
:1012700020C01EF01200320E346E30C035F0386AD5
:10128000000E376E3F6A000E3E6E350E2C6E31C07A
:101290002DF0340E2E6E03EC09F030503724D96E49
:1012A000DA6ADF6A1200969096920F0E9516820EF9
:1012B000076EDE0EE82EFED7072EFCD7020EDCEC02
:1012C00008F0280EDCEC08F00C0EDCEC08F0010E47
:1012D000DCEC08F01200FF0E0524076EFF0E06205E
:1012E000086E07C051F008C052F0536A546A1200E9
:1012F0003738392F3435362A3132332D43303D2BB0
:041300000F031200C5
:020000040030CA
:08000000000C1F1EFF8181FFAF
:00000001FF
